:08000000803102288731FD2F39
:100EC40021009D149D18672F682F642F1C08F100C2
:100ED4001B08F000080021000C1423000C108030C3
:100EE40021009E0001309D00F0308F05F0308D050B
:100EF4008731622787317108F5007008F4000230E9
:100F0400F3000430F200BA30890B862FF20B862FDF
:100F1400F30B862F003200307502803003197402FF
:100F24000318952F962F9B2F013022008F008D01DF
:100F34007A2F013075020030031974020318A32FAD
:100F4400A42FA82F023022008F00992F01307502A0
:100F54008030031974020318B02FB12FB52F043059
:100F640022008F00992F0230750200300319740299
:100F74000318BD2FBE2FC22F083022008F00992FD7
:100F8400023075028030031974020318CA2FCB2F64
:100F9400D02F22008F0101308D007A2F033075028B
:100FA4000030031974020318D82FD92FDE2F220022
:100FB4008F0102308D007A2F0330750280300319BF
:100FC40074020318E62FE72FEC2F22008F01043060
:100FD4008D007A2F0430750200300319740203184F
:100FE400F42FF52FFA2F22008F0108308D007A2F6D
:0C0FF4007A2F80310228200087316D2FF9
:020000040001F9
:04000E00EA3FFB1EAC
:00000001FF
